{
  "contractName": "MedicalDataSharing",
  "abi": [
    {
      "inputs": [],
      "stateMutability": "nonpayable",
      "type": "constructor"
    },
    {
      "anonymous": false,
      "inputs": [
        {
          "indexed": false,
          "internalType": "string",
          "name": "patientCccd",
          "type": "string"
        },
        {
          "indexed": true,
          "internalType": "address",
          "name": "hospital",
          "type": "address"
        }
      ],
      "name": "DataShared",
      "type": "event"
    },
    {
      "inputs": [
        {
          "internalType": "string",
          "name": "",
          "type": "string"
        }
      ],
      "name": "blockChains",
      "outputs": [
        {
          "internalType": "uint256",
          "name": "difficulty",
          "type": "uint256"
        }
      ],
      "stateMutability": "view",
      "type": "function",
      "constant": true
    },
    {
      "inputs": [
        {
          "internalType": "address",
          "name": "hospital",
          "type": "address"
        },
        {
          "internalType": "string",
          "name": "hospitalId",
          "type": "string"
        },
        {
          "internalType": "string",
          "name": "base64EncryptedData",
          "type": "string"
        },
        {
          "internalType": "bytes32",
          "name": "prevHash",
          "type": "bytes32"
        },
        {
          "internalType": "uint256",
          "name": "nonce",
          "type": "uint256"
        }
      ],
      "name": "calculateHash",
      "outputs": [
        {
          "internalType": "bytes32",
          "name": "",
          "type": "bytes32"
        }
      ],
      "stateMutability": "pure",
      "type": "function",
      "constant": true
    },
    {
      "inputs": [
        {
          "internalType": "uint256",
          "name": "difficulty",
          "type": "uint256"
        },
        {
          "internalType": "address",
          "name": "hospital",
          "type": "address"
        },
        {
          "internalType": "string",
          "name": "hospitalId",
          "type": "string"
        },
        {
          "internalType": "string",
          "name": "base64EncryptedData",
          "type": "string"
        },
        {
          "internalType": "bytes32",
          "name": "prevHash",
          "type": "bytes32"
        }
      ],
      "name": "mineBlock",
      "outputs": [
        {
          "internalType": "bytes32",
          "name": "hash",
          "type": "bytes32"
        },
        {
          "internalType": "uint256",
          "name": "nonce",
          "type": "uint256"
        }
      ],
      "stateMutability": "pure",
      "type": "function",
      "constant": true
    },
    {
      "inputs": [
        {
          "internalType": "bytes32",
          "name": "hash",
          "type": "bytes32"
        },
        {
          "internalType": "uint256",
          "name": "difficulty",
          "type": "uint256"
        }
      ],
      "name": "isValidDifficulty",
      "outputs": [
        {
          "internalType": "bool",
          "name": "",
          "type": "bool"
        }
      ],
      "stateMutability": "pure",
      "type": "function",
      "constant": true
    },
    {
      "inputs": [
        {
          "internalType": "string",
          "name": "patientCccd",
          "type": "string"
        },
        {
          "internalType": "string",
          "name": "hospitalId",
          "type": "string"
        },
        {
          "internalType": "string",
          "name": "base64EncryptedData",
          "type": "string"
        }
      ],
      "name": "shareData",
      "outputs": [],
      "stateMutability": "nonpayable",
      "type": "function"
    },
    {
      "inputs": [
        {
          "internalType": "string",
          "name": "patientCccd",
          "type": "string"
        },
        {
          "internalType": "string",
          "name": "hospitalId",
          "type": "string"
        }
      ],
      "name": "getRecordsByAddress",
      "outputs": [
        {
          "internalType": "string[]",
          "name": "",
          "type": "string[]"
        }
      ],
      "stateMutability": "view",
      "type": "function",
      "constant": true
    }
  ],
  "bytecode": "0x60806040523480156200001157600080fd5b5060006040518060c00160405280600073ffffffffffffffffffffffffffffffffffffffff1681526020016040518060400160405280600781526020017f67656e657369730000000000000000000000000000000000000000000000000081525081526020016040518060200160405280600081525081526020016000801b8152602001600081526020016000801b81525090506000604051620000b5906200028e565b908152602001604051809103902060010181908060018154018082558091505060019003906000526020600020906006020160009091909190915060008201518160000160006101000a81548173ffffffffffffffffffffffffffffffffffffffff021916908373ffffffffffffffffffffffffffffffffffffffff1602179055506020820151816001019080519060200190620001559291906200019c565b506040820151816002019080519060200190620001749291906200019c565b50606082015181600301556080820151816004015560a0820151816005015550505062000315565b828054620001aa90620002b0565b90600052602060002090601f016020900481019282620001ce57600085556200021a565b82601f10620001e957805160ff19168380011785556200021a565b828001600101855582156200021a579182015b8281111562000219578251825591602001919060010190620001fc565b5b5090506200022991906200022d565b5090565b5b80821115620002485760008160009055506001016200022e565b5090565b60006200025b600783620002a5565b91507f67656e65736973000000000000000000000000000000000000000000000000006000830152600782019050919050565b60006200029b826200024c565b9150819050919050565b600081905092915050565b60006002820490506001821680620002c957607f821691505b60208210811415620002e057620002df620002e6565b5b50919050565b7f4e487b7100000000000000000000000000000000000000000000000000000000600052602260045260246000fd5b6114af80620003256000396000f3fe608060405234801561001057600080fd5b50600436106100625760003560e01c80632a986cef1461006757806362690bec146100975780637ebe9dc2146100c75780639e958639146100e3578063b8db122c14610113578063d4c885e114610144575b600080fd5b610081600480360381019061007c9190610cc8565b610174565b60405161008e919061107e565b60405180910390f35b6100b160048036038101906100ac9190610ba4565b61067b565b6040516100be91906110bb565b60405180910390f35b6100e160048036038101906100dc9190610d34565b6106b7565b005b6100fd60048036038101906100f89190610c4b565b61092a565b60405161010a91906110a0565b60405180910390f35b61012d60048036038101906101289190610dcb565b6109cc565b60405161013b9291906110d6565b60405180910390f35b61015e60048036038101906101599190610c87565b610a26565b60405161016b9190611121565b60405180910390f35b6060600080846040516101879190611067565b9081526020016040518091039020600101805480602002602001604051908101604052809291908181526020016000905b8282101561038257838290600052602060002090600602016040518060c00160405290816000820160009054906101000a900473ffffffffffffffffffffffffffffffffffffffff1673ffffffffffffffffffffffffffffffffffffffff1673ffffffffffffffffffffffffffffffffffffffff168152602001600182018054610241906112d6565b80601f016020809104026020016040519081016040528092919081815260200182805461026d906112d6565b80156102ba5780601f1061028f576101008083540402835291602001916102ba565b820191906000526020600020905b81548152906001019060200180831161029d57829003601f168201915b505050505081526020016002820180546102d3906112d6565b80601f01602080910402602001604051908101604052809291908181526020018280546102ff906112d6565b801561034c5780601f106103215761010080835404028352916020019161034c565b820191906000526020600020905b81548152906001019060200180831161032f57829003601f168201915b505050505081526020016003820154815260200160048201548152602001600582015481525050815260200190600101906101b8565b5050505090506000815167ffffffffffffffff8111156103cb577f4e487b7100000000000000000000000000000000000000000000000000000000600052604160045260246000fd5b6040519080825280602002602001820160405280156103fe57816020015b60608152602001906001900390816103e95790505b5090506000805b8351811015610551578560405160200161041f9190611067565b6040516020818303038152906040528051906020012084828151811061046e577f4e487b7100000000000000000000000000000000000000000000000000000000600052603260045260246000fd5b60200260200101516020015160405160200161048a9190611067565b60405160208183030381529060405280519060200120141561053e578381815181106104df577f4e487b7100000000000000000000000000000000000000000000000000000000600052603260045260246000fd5b602002602001015160400151838381518110610524577f4e487b7100000000000000000000000000000000000000000000000000000000600052603260045260246000fd5b6020026020010181905250818061053a90611308565b9250505b808061054990611308565b915050610405565b5060008167ffffffffffffffff811115610594577f4e487b7100000000000000000000000000000000000000000000000000000000600052604160045260246000fd5b6040519080825280602002602001820160405280156105c757816020015b60608152602001906001900390816105b25790505b50905060005b8281101561066d5783818151811061060e577f4e487b7100000000000000000000000000000000000000000000000000000000600052603260045260246000fd5b602002602001015182828151811061064f577f4e487b7100000000000000000000000000000000000000000000000000000000600052603260045260246000fd5b6020026020010181905250808061066590611308565b9150506105cd565b508094505050505092915050565b60008585858585604051602001610696959493929190611010565b60405160208183030381529060405280519060200120905095945050505050565b6000806000856040516106ca9190611067565b908152602001604051809103902060010180549050116106ed576000801b610789565b6000846040516106fd9190611067565b908152602001604051809103902060010160016000866040516107209190611067565b90815260200160405180910390206001018054905061073f919061120e565b81548110610776577f4e487b7100000000000000000000000000000000000000000000000000000000600052603260045260246000fd5b9060005260206000209060060201600501545b905060008061079c6001338787876109cc565b9150915060006040518060c001604052803373ffffffffffffffffffffffffffffffffffffffff1681526020018781526020018681526020018581526020018381526020018481525090506000876040516107f79190611067565b908152602001604051809103902060010181908060018154018082558091505060019003906000526020600020906006020160009091909190915060008201518160000160006101000a81548173ffffffffffffffffffffffffffffffffffffffff021916908373ffffffffffffffffffffffffffffffffffffffff1602179055506020820151816001019080519060200190610895929190610a5a565b5060408201518160020190805190602001906108b2929190610a5a565b50606082015181600301556080820151816004015560a0820151816005015550503373ffffffffffffffffffffffffffffffffffffffff167f162f55251948b4b757799c35b3c01449ba1135716278d82ec99231a2b08c35d78860405161091991906110ff565b60405180910390a250505050505050565b600080600090505b828110156109c057600060f81b848260208110610978577f4e487b7100000000000000000000000000000000000000000000000000000000600052603260045260246000fd5b1a60f81b7effffffffffffffffffffffffffffffffffffffffffffffffffffffffffffff1916146109ad5760009150506109c6565b80806109b890611308565b915050610932565b50600190505b92915050565b60008060005b600115610a1a5760006109e8888888888661067b565b90506109f4818a61092a565b15610a06578082935093505050610a1c565b8180610a1190611308565b925050506109d2565b505b9550959350505050565b6000818051602081018201805184825260208301602085012081835280955050505050506000915090508060000154905081565b828054610a66906112d6565b90600052602060002090601f016020900481019282610a885760008555610acf565b82601f10610aa157805160ff1916838001178555610acf565b82800160010185558215610acf579182015b82811115610ace578251825591602001919060010190610ab3565b5b509050610adc9190610ae0565b5090565b5b80821115610af9576000816000905550600101610ae1565b5090565b6000610b10610b0b8461116d565b61113c565b905082815260208101848484011115610b2857600080fd5b610b33848285611294565b509392505050565b600081359050610b4a81611434565b92915050565b600081359050610b5f8161144b565b92915050565b600082601f830112610b7657600080fd5b8135610b86848260208601610afd565b91505092915050565b600081359050610b9e81611462565b92915050565b600080600080600060a08688031215610bbc57600080fd5b6000610bca88828901610b3b565b955050602086013567ffffffffffffffff811115610be757600080fd5b610bf388828901610b65565b945050604086013567ffffffffffffffff811115610c1057600080fd5b610c1c88828901610b65565b9350506060610c2d88828901610b50565b9250506080610c3e88828901610b8f565b9150509295509295909350565b60008060408385031215610c5e57600080fd5b6000610c6c85828601610b50565b9250506020610c7d85828601610b8f565b9150509250929050565b600060208284031215610c9957600080fd5b600082013567ffffffffffffffff811115610cb357600080fd5b610cbf84828501610b65565b91505092915050565b60008060408385031215610cdb57600080fd5b600083013567ffffffffffffffff811115610cf557600080fd5b610d0185828601610b65565b925050602083013567ffffffffffffffff811115610d1e57600080fd5b610d2a85828601610b65565b9150509250929050565b600080600060608486031215610d4957600080fd5b600084013567ffffffffffffffff811115610d6357600080fd5b610d6f86828701610b65565b935050602084013567ffffffffffffffff811115610d8c57600080fd5b610d9886828701610b65565b925050604084013567ffffffffffffffff811115610db557600080fd5b610dc186828701610b65565b9150509250925092565b600080600080600060a08688031215610de357600080fd5b6000610df188828901610b8f565b9550506020610e0288828901610b3b565b945050604086013567ffffffffffffffff811115610e1f57600080fd5b610e2b88828901610b65565b935050606086013567ffffffffffffffff811115610e4857600080fd5b610e5488828901610b65565b9250506080610e6588828901610b50565b9150509295509295909350565b6000610e7e8383610f47565b905092915050565b610e97610e9282611242565b611351565b82525050565b6000610ea8826111ad565b610eb281856111d0565b935083602082028501610ec48561119d565b8060005b85811015610f005784840389528151610ee18582610e72565b9450610eec836111c3565b925060208a01995050600181019050610ec8565b50829750879550505050505092915050565b610f1b81611254565b82525050565b610f2a81611260565b82525050565b610f41610f3c82611260565b611363565b82525050565b6000610f52826111b8565b610f5c81856111e1565b9350610f6c8185602086016112a3565b610f7581611416565b840191505092915050565b6000610f8b826111b8565b610f9581856111f2565b9350610fa58185602086016112a3565b610fae81611416565b840191505092915050565b6000610fc4826111b8565b610fce8185611203565b9350610fde8185602086016112a3565b80840191505092915050565b610ff38161128a565b82525050565b61100a6110058261128a565b61137f565b82525050565b600061101c8288610e86565b60148201915061102c8287610fb9565b91506110388286610fb9565b91506110448285610f30565b6020820191506110548284610ff9565b6020820191508190509695505050505050565b60006110738284610fb9565b915081905092915050565b600060208201905081810360008301526110988184610e9d565b905092915050565b60006020820190506110b56000830184610f12565b92915050565b60006020820190506110d06000830184610f21565b92915050565b60006040820190506110eb6000830185610f21565b6110f86020830184610fea565b9392505050565b600060208201905081810360008301526111198184610f80565b905092915050565b60006020820190506111366000830184610fea565b92915050565b6000604051905081810181811067ffffffffffffffff82111715611163576111626113e7565b5b8060405250919050565b600067ffffffffffffffff821115611188576111876113e7565b5b601f19601f8301169050602081019050919050565b6000819050602082019050919050565b600081519050919050565b600081519050919050565b6000602082019050919050565b600082825260208201905092915050565b600082825260208201905092915050565b600082825260208201905092915050565b600081905092915050565b60006112198261128a565b91506112248361128a565b92508282101561123757611236611389565b5b828203905092915050565b600061124d8261126a565b9050919050565b60008115159050919050565b6000819050919050565b600073ffffffffffffffffffffffffffffffffffffffff82169050919050565b6000819050919050565b82818337600083830152505050565b60005b838110156112c15780820151818401526020810190506112a6565b838111156112d0576000848401525b50505050565b600060028204905060018216806112ee57607f821691505b60208210811415611302576113016113b8565b5b50919050565b60006113138261128a565b91507fffffffffffffffffffffffffffffffffffffffffffffffffffffffffffffffff82141561134657611345611389565b5b600182019050919050565b600061135c8261136d565b9050919050565b6000819050919050565b600061137882611427565b9050919050565b6000819050919050565b7f4e487b7100000000000000000000000000000000000000000000000000000000600052601160045260246000fd5b7f4e487b7100000000000000000000000000000000000000000000000000000000600052602260045260246000fd5b7f4e487b7100000000000000000000000000000000000000000000000000000000600052604160045260246000fd5b6000601f19601f8301169050919050565b60008160601b9050919050565b61143d81611242565b811461144857600080fd5b50565b61145481611260565b811461145f57600080fd5b50565b61146b8161128a565b811461147657600080fd5b5056fea2646970667358221220c508de9641c4faccbb2c171e17112207806ace7d22af8f22cb0c9f70d9a9260364736f6c63430008000033",
  "immutableReferences": {},
  "source": "// SPDX-License-Identifier: MIT\npragma solidity ^0.8.0;\n\ncontract MedicalDataSharing {\n    struct PatientData {\n        address hospital;\n        string hospitalId;\n        string base64EncryptedData;\n        bytes32 prevHash;\n        uint nonce;\n        bytes32 hash;\n    }\n\n    struct BlockChain {\n        uint difficulty;\n        PatientData[] chain;\n    }\n\n    mapping(string => BlockChain) public blockChains;\n\n    event DataShared(string patientCccd, address indexed hospital);\n\n    constructor() {\n        PatientData memory genesisBlock = PatientData({\n            hospital: address(0),\n            hospitalId: 'genesis',\n            base64EncryptedData: '',\n            prevHash: bytes32(0),\n            nonce: 0,\n            hash: bytes32(0)\n        });\n\n        blockChains['genesis'].chain.push(genesisBlock);\n    }\n\n    function calculateHash(\n        address hospital,\n        string memory hospitalId,\n        string memory base64EncryptedData,\n        bytes32 prevHash,\n        uint nonce\n    ) public pure returns (bytes32) {\n        return keccak256(abi.encodePacked(hospital, hospitalId, base64EncryptedData, prevHash, nonce));\n    }\n\n    function mineBlock(\n        uint difficulty,\n        address hospital,\n        string memory hospitalId,\n        string memory base64EncryptedData,\n        bytes32 prevHash\n    ) public pure returns (bytes32 hash, uint nonce) {\n        uint nonce = 0;\n        while (true) {\n            bytes32 hash = calculateHash(hospital, hospitalId, base64EncryptedData, prevHash, nonce);\n\n            if (isValidDifficulty(hash, difficulty)) {\n                return (hash, nonce);\n            }\n\n            nonce++;\n        }\n    }\n\n    function isValidDifficulty(bytes32 hash, uint difficulty) public pure returns (bool) {\n        for (uint i = 0; i < difficulty; i++) {\n            if (hash[i] != 0) {\n                return false;\n            }\n        }\n        return true;\n    }\n\n    function shareData(string memory patientCccd, string memory hospitalId, string memory base64EncryptedData) public {\n        bytes32 prevHash = blockChains[patientCccd].chain.length > 0\n            ? blockChains[patientCccd].chain[blockChains[patientCccd].chain.length - 1].hash\n            : bytes32(0);\n\n        (bytes32 hash, uint nonce) = mineBlock(1, msg.sender, hospitalId, base64EncryptedData, prevHash);\n\n        PatientData memory newRecord = PatientData({\n            hospital: msg.sender,\n            hospitalId: hospitalId,\n            base64EncryptedData: base64EncryptedData,\n            prevHash: prevHash,\n            nonce: nonce,\n            hash: hash\n        });\n\n        blockChains[patientCccd].chain.push(newRecord);\n        emit DataShared(patientCccd, msg.sender);\n    }\n\n    function getRecordsByAddress(\n        string memory patientCccd,\n        string memory hospitalId\n    ) public view returns (string[] memory) {\n        PatientData[] memory records = blockChains[patientCccd].chain;\n\n        string[] memory tempResults = new string[](records.length);\n        uint count = 0;\n        for (uint i = 0; i < records.length; i++) {\n            if (keccak256(abi.encodePacked(records[i].hospitalId)) == keccak256((abi.encodePacked((hospitalId))))) {\n                tempResults[count] = records[i].base64EncryptedData;\n                count++;\n            }\n        }\n\n        string[] memory matchedRecords = new string[](count);\n        for (uint i = 0; i < count; i++) {\n            matchedRecords[i] = tempResults[i];\n        }\n\n        return matchedRecords;\n    }\n}",
  "sourcePath": "/home/duyvu0203/workpace/hocKi7/mscnptpm/microservice_blockchain/data_share/contracts/DataSharing.sol",
  "compiler": {
    "name": "solc",
    "version": "0.8.0+commit.c7dfd78e.Emscripten.clang"
  },
  "schemaVersion": "3.4.16",
  "updatedAt": "2024-12-11T01:30:30.000Z",
  "networkType": "ethereum",
  "devdoc": {
    "kind": "dev",
    "methods": {},
    "version": 1
  },
  "userdoc": {
    "kind": "user",
    "methods": {},
    "version": 1
  }
}