{
  "contractName": "MedicalDataSharing",
  "abi": [
    {
      "anonymous": false,
      "inputs": [
        {
          "indexed": false,
          "internalType": "string",
          "name": "patientCccd",
          "type": "string"
        },
        {
          "indexed": true,
          "internalType": "address",
          "name": "hospital",
          "type": "address"
        }
      ],
      "name": "DataShared",
      "type": "event"
    },
    {
      "inputs": [
        {
          "internalType": "string",
          "name": "",
          "type": "string"
        }
      ],
      "name": "patientRecords",
      "outputs": [
        {
          "internalType": "address",
          "name": "hospital",
          "type": "address"
        },
        {
          "internalType": "bytes",
          "name": "encryptedData",
          "type": "bytes"
        }
      ],
      "stateMutability": "view",
      "type": "function",
      "constant": true
    },
    {
      "inputs": [
        {
          "internalType": "string",
          "name": "patientCccd",
          "type": "string"
        },
        {
          "internalType": "bytes",
          "name": "encryptedData",
          "type": "bytes"
        }
      ],
      "name": "shareData",
      "outputs": [],
      "stateMutability": "nonpayable",
      "type": "function"
    },
    {
      "inputs": [
        {
          "internalType": "string",
          "name": "patientCccd",
          "type": "string"
        }
      ],
      "name": "getData",
      "outputs": [
        {
          "internalType": "bytes",
          "name": "",
          "type": "bytes"
        }
      ],
      "stateMutability": "view",
      "type": "function",
      "constant": true
    }
  ],
  "bytecode": "0x608060405234801561001057600080fd5b506108d6806100206000396000f3fe608060405234801561001057600080fd5b50600436106100415760003560e01c8063ae55c88814610046578063b1def8d814610076578063d2303dad14610092575b600080fd5b610060600480360381019061005b91906104cd565b6100c3565b60405161006d9190610673565b60405180910390f35b610090600480360381019061008b919061050e565b610176565b005b6100ac60048036038101906100a791906104cd565b610278565b6040516100ba929190610643565b60405180910390f35b60606000826040516100d5919061062c565b908152602001604051809103902060010180546100f1906107ff565b80601f016020809104026020016040519081016040528092919081815260200182805461011d906107ff565b801561016a5780601f1061013f5761010080835404028352916020019161016a565b820191906000526020600020905b81548152906001019060200180831161014d57829003601f168201915b50505050509050919050565b60405180604001604052803373ffffffffffffffffffffffffffffffffffffffff168152602001828152506000836040516101b1919061062c565b908152602001604051809103902060008201518160000160006101000a81548173ffffffffffffffffffffffffffffffffffffffff021916908373ffffffffffffffffffffffffffffffffffffffff160217905550602082015181600101908051906020019061022292919061035a565b509050503373ffffffffffffffffffffffffffffffffffffffff167f162f55251948b4b757799c35b3c01449ba1135716278d82ec99231a2b08c35d78360405161026c9190610695565b60405180910390a25050565b6000818051602081018201805184825260208301602085012081835280955050505050506000915090508060000160009054906101000a900473ffffffffffffffffffffffffffffffffffffffff16908060010180546102d7906107ff565b80601f0160208091040260200160405190810160405280929190818152602001828054610303906107ff565b80156103505780601f1061032557610100808354040283529160200191610350565b820191906000526020600020905b81548152906001019060200180831161033357829003601f168201915b5050505050905082565b828054610366906107ff565b90600052602060002090601f01602090048101928261038857600085556103cf565b82601f106103a157805160ff19168380011785556103cf565b828001600101855582156103cf579182015b828111156103ce5782518255916020019190600101906103b3565b5b5090506103dc91906103e0565b5090565b5b808211156103f95760008160009055506001016103e1565b5090565b600061041061040b846106e8565b6106b7565b90508281526020810184848401111561042857600080fd5b6104338482856107bd565b509392505050565b600061044e61044984610718565b6106b7565b90508281526020810184848401111561046657600080fd5b6104718482856107bd565b509392505050565b600082601f83011261048a57600080fd5b813561049a8482602086016103fd565b91505092915050565b600082601f8301126104b457600080fd5b81356104c484826020860161043b565b91505092915050565b6000602082840312156104df57600080fd5b600082013567ffffffffffffffff8111156104f957600080fd5b610505848285016104a3565b91505092915050565b6000806040838503121561052157600080fd5b600083013567ffffffffffffffff81111561053b57600080fd5b610547858286016104a3565b925050602083013567ffffffffffffffff81111561056457600080fd5b61057085828601610479565b9150509250929050565b6105838161078b565b82525050565b600061059482610748565b61059e818561075e565b93506105ae8185602086016107cc565b6105b78161088f565b840191505092915050565b60006105cd82610753565b6105d7818561076f565b93506105e78185602086016107cc565b6105f08161088f565b840191505092915050565b600061060682610753565b6106108185610780565b93506106208185602086016107cc565b80840191505092915050565b600061063882846105fb565b915081905092915050565b6000604082019050610658600083018561057a565b818103602083015261066a8184610589565b90509392505050565b6000602082019050818103600083015261068d8184610589565b905092915050565b600060208201905081810360008301526106af81846105c2565b905092915050565b6000604051905081810181811067ffffffffffffffff821117156106de576106dd610860565b5b8060405250919050565b600067ffffffffffffffff82111561070357610702610860565b5b601f19601f8301169050602081019050919050565b600067ffffffffffffffff82111561073357610732610860565b5b601f19601f8301169050602081019050919050565b600081519050919050565b600081519050919050565b600082825260208201905092915050565b600082825260208201905092915050565b600081905092915050565b60006107968261079d565b9050919050565b600073ffffffffffffffffffffffffffffffffffffffff82169050919050565b82818337600083830152505050565b60005b838110156107ea5780820151818401526020810190506107cf565b838111156107f9576000848401525b50505050565b6000600282049050600182168061081757607f821691505b6020821081141561082b5761082a610831565b5b50919050565b7f4e487b7100000000000000000000000000000000000000000000000000000000600052602260045260246000fd5b7f4e487b7100000000000000000000000000000000000000000000000000000000600052604160045260246000fd5b6000601f19601f830116905091905056fea2646970667358221220891771c68d2c7cc2bf57d170c74c749fd5790aa285ce4520ab6b4ee699c0c2c864736f6c63430008000033",
  "immutableReferences": {},
  "source": "// SPDX-License-Identifier: MIT\r\npragma solidity ^0.8.0;\r\n\r\ncontract MedicalDataSharing {\r\n    struct PatientData {\r\n        address hospital; \r\n        bytes encryptedData;\r\n    }\r\n\r\n    mapping(string => PatientData) public patientRecords;\r\n\r\n    event DataShared(string patientCccd, address indexed hospital);\r\n\r\n    function shareData(string memory patientCccd, bytes memory encryptedData) public {\r\n        patientRecords[patientCccd] = PatientData(msg.sender, encryptedData);\r\n        emit DataShared(patientCccd, msg.sender);\r\n    }\r\n\r\n    function getData(string memory patientCccd) public view returns (bytes memory) {\r\n        return patientRecords[patientCccd].encryptedData;\r\n    }\r\n}\r\n",
  "sourcePath": "C:\\Users\\PC\\Desktop\\K 7 nm 2024\\Mot So Cong Nghe\\microservice_blockchain\\data_share\\contracts\\DataSharing.sol",
  "compiler": {
    "name": "solc",
    "version": "0.8.0+commit.c7dfd78e.Emscripten.clang"
  },
  "schemaVersion": "3.4.16",
  "updatedAt": "2024-11-24T02:39:27.926Z",
  "networkType": "ethereum",
  "devdoc": {
    "kind": "dev",
    "methods": {},
    "version": 1
  },
  "userdoc": {
    "kind": "user",
    "methods": {},
    "version": 1
  }
}