{
  "contractName": "MedicalDataSharing",
  "abi": [
    {
      "anonymous": false,
      "inputs": [
        {
          "indexed": false,
          "internalType": "string",
          "name": "patientCccd",
          "type": "string"
        },
        {
          "indexed": true,
          "internalType": "address",
          "name": "hospital",
          "type": "address"
        }
      ],
      "name": "DataShared",
      "type": "event"
    },
    {
      "inputs": [
        {
          "internalType": "string",
          "name": "",
          "type": "string"
        },
        {
          "internalType": "uint256",
          "name": "",
          "type": "uint256"
        }
      ],
      "name": "patientRecords",
      "outputs": [
        {
          "internalType": "address",
          "name": "hospital",
          "type": "address"
        },
        {
          "internalType": "string",
          "name": "base64EncryptedData",
          "type": "string"
        }
      ],
      "stateMutability": "view",
      "type": "function",
      "constant": true
    },
    {
      "inputs": [
        {
          "internalType": "string",
          "name": "patientCccd",
          "type": "string"
        },
        {
          "internalType": "string",
          "name": "base64EncryptedData",
          "type": "string"
        }
      ],
      "name": "shareData",
      "outputs": [],
      "stateMutability": "nonpayable",
      "type": "function"
    },
    {
      "inputs": [
        {
          "internalType": "string",
          "name": "patientCccd",
          "type": "string"
        }
      ],
      "name": "getData",
      "outputs": [
        {
          "components": [
            {
              "internalType": "address",
              "name": "hospital",
              "type": "address"
            },
            {
              "internalType": "string",
              "name": "base64EncryptedData",
              "type": "string"
            }
          ],
          "internalType": "struct MedicalDataSharing.PatientData[]",
          "name": "",
          "type": "tuple[]"
        }
      ],
      "stateMutability": "view",
      "type": "function",
      "constant": true
    },
    {
      "inputs": [
        {
          "internalType": "string",
          "name": "patientCccd",
          "type": "string"
        },
        {
          "internalType": "address",
          "name": "hospital",
          "type": "address"
        }
      ],
      "name": "getRecordsByAddress",
      "outputs": [
        {
          "internalType": "string[]",
          "name": "",
          "type": "string[]"
        }
      ],
      "stateMutability": "view",
      "type": "function",
      "constant": true
    }
  ],
  "bytecode": "0x608060405234801561001057600080fd5b5061109e806100206000396000f3fe608060405234801561001057600080fd5b506004361061004c5760003560e01c8063495ccf3e14610051578063ae55c88814610081578063b8a751df146100b1578063ddd0bb9e146100e2575b600080fd5b61006b600480360381019061006691906109c7565b6100fe565b6040516100789190610d32565b60405180910390f35b61009b60048036038101906100969190610986565b6104bd565b6040516100a89190610d54565b60405180910390f35b6100cb60048036038101906100c69190610a87565b610622565b6040516100d9929190610d02565b60405180910390f35b6100fc60048036038101906100f79190610a1b565b610721565b005b6060600080846040516101119190610ceb565b9081526020016040518091039020805480602002602001604051908101604052809291908181526020016000905b8282101561025957838290600052602060002090600202016040518060400160405290816000820160009054906101000a900473ffffffffffffffffffffffffffffffffffffffff1673ffffffffffffffffffffffffffffffffffffffff1673ffffffffffffffffffffffffffffffffffffffff1681526020016001820180546101c890610f21565b80601f01602080910402602001604051908101604052809291908181526020018280546101f490610f21565b80156102415780601f1061021657610100808354040283529160200191610241565b820191906000526020600020905b81548152906001019060200180831161022457829003601f168201915b5050505050815250508152602001906001019061013f565b5050505090506000805b8251811015610306578473ffffffffffffffffffffffffffffffffffffffff168382815181106102bc577f4e487b7100000000000000000000000000000000000000000000000000000000600052603260045260246000fd5b60200260200101516000015173ffffffffffffffffffffffffffffffffffffffff1614156102f35781806102ef90610f53565b9250505b80806102fe90610f53565b915050610263565b5060008167ffffffffffffffff811115610349577f4e487b7100000000000000000000000000000000000000000000000000000000600052604160045260246000fd5b60405190808252806020026020018201604052801561037c57816020015b60608152602001906001900390816103675790505b5090506000805b84518110156104af578673ffffffffffffffffffffffffffffffffffffffff168582815181106103dc577f4e487b7100000000000000000000000000000000000000000000000000000000600052603260045260246000fd5b60200260200101516000015173ffffffffffffffffffffffffffffffffffffffff16141561049c5784818151811061043d577f4e487b7100000000000000000000000000000000000000000000000000000000600052603260045260246000fd5b602002602001015160200151838381518110610482577f4e487b7100000000000000000000000000000000000000000000000000000000600052603260045260246000fd5b6020026020010181905250818061049890610f53565b9250505b80806104a790610f53565b915050610383565b508194505050505092915050565b60606000826040516104cf9190610ceb565b9081526020016040518091039020805480602002602001604051908101604052809291908181526020016000905b8282101561061757838290600052602060002090600202016040518060400160405290816000820160009054906101000a900473ffffffffffffffffffffffffffffffffffffffff1673ffffffffffffffffffffffffffffffffffffffff1673ffffffffffffffffffffffffffffffffffffffff16815260200160018201805461058690610f21565b80601f01602080910402602001604051908101604052809291908181526020018280546105b290610f21565b80156105ff5780601f106105d4576101008083540402835291602001916105ff565b820191906000526020600020905b8154815290600101906020018083116105e257829003601f168201915b505050505081525050815260200190600101906104fd565b505050509050919050565b600082805160208101820180518482526020830160208501208183528095505050505050818154811061065457600080fd5b9060005260206000209060020201600091509150508060000160009054906101000a900473ffffffffffffffffffffffffffffffffffffffff169080600101805461069e90610f21565b80601f01602080910402602001604051908101604052809291908181526020018280546106ca90610f21565b80156107175780601f106106ec57610100808354040283529160200191610717565b820191906000526020600020905b8154815290600101906020018083116106fa57829003601f168201915b5050505050905082565b600060405180604001604052803373ffffffffffffffffffffffffffffffffffffffff1681526020018381525090506000836040516107609190610ceb565b908152602001604051809103902081908060018154018082558091505060019003906000526020600020906002020160009091909190915060008201518160000160006101000a81548173ffffffffffffffffffffffffffffffffffffffff021916908373ffffffffffffffffffffffffffffffffffffffff16021790555060208201518160010190805190602001906107fb929190610851565b5050503373ffffffffffffffffffffffffffffffffffffffff167f162f55251948b4b757799c35b3c01449ba1135716278d82ec99231a2b08c35d7846040516108449190610d76565b60405180910390a2505050565b82805461085d90610f21565b90600052602060002090601f01602090048101928261087f57600085556108c6565b82601f1061089857805160ff19168380011785556108c6565b828001600101855582156108c6579182015b828111156108c55782518255916020019190600101906108aa565b5b5090506108d391906108d7565b5090565b5b808211156108f05760008160009055506001016108d8565b5090565b600061090761090284610dc9565b610d98565b90508281526020810184848401111561091f57600080fd5b61092a848285610edf565b509392505050565b6000813590506109418161103a565b92915050565b600082601f83011261095857600080fd5b81356109688482602086016108f4565b91505092915050565b60008135905061098081611051565b92915050565b60006020828403121561099857600080fd5b600082013567ffffffffffffffff8111156109b257600080fd5b6109be84828501610947565b91505092915050565b600080604083850312156109da57600080fd5b600083013567ffffffffffffffff8111156109f457600080fd5b610a0085828601610947565b9250506020610a1185828601610932565b9150509250929050565b60008060408385031215610a2e57600080fd5b600083013567ffffffffffffffff811115610a4857600080fd5b610a5485828601610947565b925050602083013567ffffffffffffffff811115610a7157600080fd5b610a7d85828601610947565b9150509250929050565b60008060408385031215610a9a57600080fd5b600083013567ffffffffffffffff811115610ab457600080fd5b610ac085828601610947565b9250506020610ad185828601610971565b9150509250929050565b6000610ae78383610c0b565b905092915050565b6000610afb8383610cae565b905092915050565b610b0c81610ea3565b82525050565b610b1b81610ea3565b82525050565b6000610b2c82610e19565b610b368185610e54565b935083602082028501610b4885610df9565b8060005b85811015610b845784840389528151610b658582610adb565b9450610b7083610e3a565b925060208a01995050600181019050610b4c565b50829750879550505050505092915050565b6000610ba182610e24565b610bab8185610e65565b935083602082028501610bbd85610e09565b8060005b85811015610bf95784840389528151610bda8582610aef565b9450610be583610e47565b925060208a01995050600181019050610bc1565b50829750879550505050505092915050565b6000610c1682610e2f565b610c208185610e76565b9350610c30818560208601610eee565b610c3981611029565b840191505092915050565b6000610c4f82610e2f565b610c598185610e87565b9350610c69818560208601610eee565b610c7281611029565b840191505092915050565b6000610c8882610e2f565b610c928185610e98565b9350610ca2818560208601610eee565b80840191505092915050565b6000604083016000830151610cc66000860182610b03565b5060208301518482036020860152610cde8282610c0b565b9150508091505092915050565b6000610cf78284610c7d565b915081905092915050565b6000604082019050610d176000830185610b12565b8181036020830152610d298184610c44565b90509392505050565b60006020820190508181036000830152610d4c8184610b21565b905092915050565b60006020820190508181036000830152610d6e8184610b96565b905092915050565b60006020820190508181036000830152610d908184610c44565b905092915050565b6000604051905081810181811067ffffffffffffffff82111715610dbf57610dbe610ffa565b5b8060405250919050565b600067ffffffffffffffff821115610de457610de3610ffa565b5b601f19601f8301169050602081019050919050565b6000819050602082019050919050565b6000819050602082019050919050565b600081519050919050565b600081519050919050565b600081519050919050565b6000602082019050919050565b6000602082019050919050565b600082825260208201905092915050565b600082825260208201905092915050565b600082825260208201905092915050565b600082825260208201905092915050565b600081905092915050565b6000610eae82610eb5565b9050919050565b600073ffffffffffffffffffffffffffffffffffffffff82169050919050565b6000819050919050565b82818337600083830152505050565b60005b83811015610f0c578082015181840152602081019050610ef1565b83811115610f1b576000848401525b50505050565b60006002820490506001821680610f3957607f821691505b60208210811415610f4d57610f4c610fcb565b5b50919050565b6000610f5e82610ed5565b91507fffffffffffffffffffffffffffffffffffffffffffffffffffffffffffffffff821415610f9157610f90610f9c565b5b600182019050919050565b7f4e487b7100000000000000000000000000000000000000000000000000000000600052601160045260246000fd5b7f4e487b7100000000000000000000000000000000000000000000000000000000600052602260045260246000fd5b7f4e487b7100000000000000000000000000000000000000000000000000000000600052604160045260246000fd5b6000601f19601f8301169050919050565b61104381610ea3565b811461104e57600080fd5b50565b61105a81610ed5565b811461106557600080fd5b5056fea26469706673582212207b5a80323d7d5fab0a6f0defafc665c3a679fee363d3232b8781e3ce950923e164736f6c63430008000033",
  "immutableReferences": {},
  "source": "pragma solidity ^0.8.0;\n\ncontract MedicalDataSharing {\n    struct PatientData {\n        address hospital;\n        string base64EncryptedData;\n    }\n\n    mapping(string => PatientData[]) public patientRecords;\n\n    event DataShared(string patientCccd, address indexed hospital);\n\n    function shareData(string memory patientCccd, string memory base64EncryptedData) public {\n        PatientData memory newRecord = PatientData({\n            hospital: msg.sender,\n            base64EncryptedData: base64EncryptedData\n        });\n\n        patientRecords[patientCccd].push(newRecord);\n        emit DataShared(patientCccd, msg.sender);\n    }\n\n    function getData(string memory patientCccd) public view returns (PatientData[] memory) {\n        return patientRecords[patientCccd];\n    }\n\n    function getRecordsByAddress(string memory patientCccd, address hospital) public view returns (string[] memory) {\n        PatientData[] memory records = patientRecords[patientCccd];\n        \n        uint count = 0;\n        for (uint i = 0; i < records.length; i++) {\n            if (records[i].hospital == hospital) {\n                count++;\n            }\n        }\n\n        // Khi to mng  lu cc bn ghi khp\n        string[] memory matchedRecords = new string[](count);\n        uint index = 0;\n        for (uint i = 0; i < records.length; i++) {\n            if (records[i].hospital == hospital) {\n                matchedRecords[index] = records[i].base64EncryptedData;\n                index++;\n            }\n        }\n\n        return matchedRecords;\n    }\n}\n",
  "sourcePath": "/home/coder/Desktop/microservice_blockchain/data_share/contracts/DataSharing.sol",
  "compiler": {
    "name": "solc",
    "version": "0.8.0+commit.c7dfd78e.Emscripten.clang"
  },
  "schemaVersion": "3.4.16",
  "updatedAt": "2024-11-25T08:24:05.215Z",
  "networkType": "ethereum",
  "devdoc": {
    "kind": "dev",
    "methods": {},
    "version": 1
  },
  "userdoc": {
    "kind": "user",
    "methods": {},
    "version": 1
  }
}