{
  "contractName": "MedicalDataSharing",
  "abi": [
    {
      "anonymous": false,
      "inputs": [
        {
          "indexed": false,
          "internalType": "string",
          "name": "patientCccd",
          "type": "string"
        },
        {
          "indexed": true,
          "internalType": "address",
          "name": "hospital",
          "type": "address"
        }
      ],
      "name": "DataShared",
      "type": "event"
    },
    {
      "inputs": [
        {
          "internalType": "string",
          "name": "",
          "type": "string"
        },
        {
          "internalType": "uint256",
          "name": "",
          "type": "uint256"
        }
      ],
      "name": "patientRecords",
      "outputs": [
        {
          "internalType": "address",
          "name": "hospital",
          "type": "address"
        },
        {
          "internalType": "string",
          "name": "hospital_id",
          "type": "string"
        },
        {
          "internalType": "string",
          "name": "base64EncryptedData",
          "type": "string"
        }
      ],
      "stateMutability": "view",
      "type": "function",
      "constant": true
    },
    {
      "inputs": [
        {
          "internalType": "string",
          "name": "patientCccd",
          "type": "string"
        },
        {
          "internalType": "string",
          "name": "hospital_id",
          "type": "string"
        },
        {
          "internalType": "string",
          "name": "base64EncryptedData",
          "type": "string"
        }
      ],
      "name": "shareData",
      "outputs": [],
      "stateMutability": "nonpayable",
      "type": "function"
    },
    {
      "inputs": [
        {
          "internalType": "string",
          "name": "patientCccd",
          "type": "string"
        }
      ],
      "name": "getData",
      "outputs": [
        {
          "components": [
            {
              "internalType": "address",
              "name": "hospital",
              "type": "address"
            },
            {
              "internalType": "string",
              "name": "hospital_id",
              "type": "string"
            },
            {
              "internalType": "string",
              "name": "base64EncryptedData",
              "type": "string"
            }
          ],
          "internalType": "struct MedicalDataSharing.PatientData[]",
          "name": "",
          "type": "tuple[]"
        }
      ],
      "stateMutability": "view",
      "type": "function",
      "constant": true
    },
    {
      "inputs": [
        {
          "internalType": "string",
          "name": "patientCccd",
          "type": "string"
        },
        {
          "internalType": "string",
          "name": "hospital_id",
          "type": "string"
        }
      ],
      "name": "getRecordsByAddress",
      "outputs": [
        {
          "internalType": "string[]",
          "name": "",
          "type": "string[]"
        }
      ],
      "stateMutability": "view",
      "type": "function",
      "constant": true
    }
  ],
  "bytecode": "0x608060405234801561001057600080fd5b506112fb806100206000396000f3fe608060405234801561001057600080fd5b506004361061004c5760003560e01c80632a986cef146100515780637ebe9dc214610081578063ae55c8881461009d578063b8a751df146100cd575b600080fd5b61006b60048036038101906100669190610bc9565b6100ff565b6040516100789190610fa6565b60405180910390f35b61009b60048036038101906100969190610c35565b610590565b005b6100b760048036038101906100b29190610b88565b6106e4565b6040516100c49190610fc8565b60405180910390f35b6100e760048036038101906100e29190610ccc565b6108db565b6040516100f693929190610f61565b60405180910390f35b6060600080846040516101129190610f4a565b9081526020016040518091039020805480602002602001604051908101604052809291908181526020016000905b828210156102ec57838290600052602060002090600302016040518060600160405290816000820160009054906101000a900473ffffffffffffffffffffffffffffffffffffffff1673ffffffffffffffffffffffffffffffffffffffff1673ffffffffffffffffffffffffffffffffffffffff1681526020016001820180546101c990611195565b80601f01602080910402602001604051908101604052809291908181526020018280546101f590611195565b80156102425780601f1061021757610100808354040283529160200191610242565b820191906000526020600020905b81548152906001019060200180831161022557829003601f168201915b5050505050815260200160028201805461025b90611195565b80601f016020809104026020016040519081016040528092919081815260200182805461028790611195565b80156102d45780601f106102a9576101008083540402835291602001916102d4565b820191906000526020600020905b8154815290600101906020018083116102b757829003601f168201915b50505050508152505081526020019060010190610140565b5050505090506000805b82518110156103b957846040516020016103109190610f4a565b6040516020818303038152906040528051906020012083828151811061035f577f4e487b7100000000000000000000000000000000000000000000000000000000600052603260045260246000fd5b60200260200101516020015160405160200161037b9190610f4a565b6040516020818303038152906040528051906020012014156103a65781806103a2906111c7565b9250505b80806103b1906111c7565b9150506102f6565b5060008167ffffffffffffffff8111156103fc577f4e487b7100000000000000000000000000000000000000000000000000000000600052604160045260246000fd5b60405190808252806020026020018201604052801561042f57816020015b606081526020019060019003908161041a5790505b5090506000805b845181101561058257866040516020016104509190610f4a565b6040516020818303038152906040528051906020012085828151811061049f577f4e487b7100000000000000000000000000000000000000000000000000000000600052603260045260246000fd5b6020026020010151602001516040516020016104bb9190610f4a565b60405160208183030381529060405280519060200120141561056f57848181518110610510577f4e487b7100000000000000000000000000000000000000000000000000000000600052603260045260246000fd5b602002602001015160400151838381518110610555577f4e487b7100000000000000000000000000000000000000000000000000000000600052603260045260246000fd5b6020026020010181905250818061056b906111c7565b9250505b808061057a906111c7565b915050610436565b508194505050505092915050565b600060405180606001604052803373ffffffffffffffffffffffffffffffffffffffff1681526020018481526020018381525090506000846040516105d59190610f4a565b908152602001604051809103902081908060018154018082558091505060019003906000526020600020906003020160009091909190915060008201518160000160006101000a81548173ffffffffffffffffffffffffffffffffffffffff021916908373ffffffffffffffffffffffffffffffffffffffff1602179055506020820151816001019080519060200190610670929190610a68565b50604082015181600201908051906020019061068d929190610a68565b5050503373ffffffffffffffffffffffffffffffffffffffff167f162f55251948b4b757799c35b3c01449ba1135716278d82ec99231a2b08c35d7856040516106d69190610fea565b60405180910390a250505050565b60606000826040516106f69190610f4a565b9081526020016040518091039020805480602002602001604051908101604052809291908181526020016000905b828210156108d057838290600052602060002090600302016040518060600160405290816000820160009054906101000a900473ffffffffffffffffffffffffffffffffffffffff1673ffffffffffffffffffffffffffffffffffffffff1673ffffffffffffffffffffffffffffffffffffffff1681526020016001820180546107ad90611195565b80601f01602080910402602001604051908101604052809291908181526020018280546107d990611195565b80156108265780601f106107fb57610100808354040283529160200191610826565b820191906000526020600020905b81548152906001019060200180831161080957829003601f168201915b5050505050815260200160028201805461083f90611195565b80601f016020809104026020016040519081016040528092919081815260200182805461086b90611195565b80156108b85780601f1061088d576101008083540402835291602001916108b8565b820191906000526020600020905b81548152906001019060200180831161089b57829003601f168201915b50505050508152505081526020019060010190610724565b505050509050919050565b600082805160208101820180518482526020830160208501208183528095505050505050818154811061090d57600080fd5b9060005260206000209060030201600091509150508060000160009054906101000a900473ffffffffffffffffffffffffffffffffffffffff169080600101805461095790611195565b80601f016020809104026020016040519081016040528092919081815260200182805461098390611195565b80156109d05780601f106109a5576101008083540402835291602001916109d0565b820191906000526020600020905b8154815290600101906020018083116109b357829003601f168201915b5050505050908060020180546109e590611195565b80601f0160208091040260200160405190810160405280929190818152602001828054610a1190611195565b8015610a5e5780601f10610a3357610100808354040283529160200191610a5e565b820191906000526020600020905b815481529060010190602001808311610a4157829003601f168201915b5050505050905083565b828054610a7490611195565b90600052602060002090601f016020900481019282610a965760008555610add565b82601f10610aaf57805160ff1916838001178555610add565b82800160010185558215610add579182015b82811115610adc578251825591602001919060010190610ac1565b5b509050610aea9190610aee565b5090565b5b80821115610b07576000816000905550600101610aef565b5090565b6000610b1e610b198461103d565b61100c565b905082815260208101848484011115610b3657600080fd5b610b41848285611153565b509392505050565b600082601f830112610b5a57600080fd5b8135610b6a848260208601610b0b565b91505092915050565b600081359050610b82816112ae565b92915050565b600060208284031215610b9a57600080fd5b600082013567ffffffffffffffff811115610bb457600080fd5b610bc084828501610b49565b91505092915050565b60008060408385031215610bdc57600080fd5b600083013567ffffffffffffffff811115610bf657600080fd5b610c0285828601610b49565b925050602083013567ffffffffffffffff811115610c1f57600080fd5b610c2b85828601610b49565b9150509250929050565b600080600060608486031215610c4a57600080fd5b600084013567ffffffffffffffff811115610c6457600080fd5b610c7086828701610b49565b935050602084013567ffffffffffffffff811115610c8d57600080fd5b610c9986828701610b49565b925050604084013567ffffffffffffffff811115610cb657600080fd5b610cc286828701610b49565b9150509250925092565b60008060408385031215610cdf57600080fd5b600083013567ffffffffffffffff811115610cf957600080fd5b610d0585828601610b49565b9250506020610d1685828601610b73565b9150509250929050565b6000610d2c8383610e50565b905092915050565b6000610d408383610ef3565b905092915050565b610d5181611117565b82525050565b610d6081611117565b82525050565b6000610d718261108d565b610d7b81856110c8565b935083602082028501610d8d8561106d565b8060005b85811015610dc95784840389528151610daa8582610d20565b9450610db5836110ae565b925060208a01995050600181019050610d91565b50829750879550505050505092915050565b6000610de682611098565b610df081856110d9565b935083602082028501610e028561107d565b8060005b85811015610e3e5784840389528151610e1f8582610d34565b9450610e2a836110bb565b925060208a01995050600181019050610e06565b50829750879550505050505092915050565b6000610e5b826110a3565b610e6581856110ea565b9350610e75818560208601611162565b610e7e8161129d565b840191505092915050565b6000610e94826110a3565b610e9e81856110fb565b9350610eae818560208601611162565b610eb78161129d565b840191505092915050565b6000610ecd826110a3565b610ed7818561110c565b9350610ee7818560208601611162565b80840191505092915050565b6000606083016000830151610f0b6000860182610d48565b5060208301518482036020860152610f238282610e50565b91505060408301518482036040860152610f3d8282610e50565b9150508091505092915050565b6000610f568284610ec2565b915081905092915050565b6000606082019050610f766000830186610d57565b8181036020830152610f888185610e89565b90508181036040830152610f9c8184610e89565b9050949350505050565b60006020820190508181036000830152610fc08184610d66565b905092915050565b60006020820190508181036000830152610fe28184610ddb565b905092915050565b600060208201905081810360008301526110048184610e89565b905092915050565b6000604051905081810181811067ffffffffffffffff821117156110335761103261126e565b5b8060405250919050565b600067ffffffffffffffff8211156110585761105761126e565b5b601f19601f8301169050602081019050919050565b6000819050602082019050919050565b6000819050602082019050919050565b600081519050919050565b600081519050919050565b600081519050919050565b6000602082019050919050565b6000602082019050919050565b600082825260208201905092915050565b600082825260208201905092915050565b600082825260208201905092915050565b600082825260208201905092915050565b600081905092915050565b600061112282611129565b9050919050565b600073ffffffffffffffffffffffffffffffffffffffff82169050919050565b6000819050919050565b82818337600083830152505050565b60005b83811015611180578082015181840152602081019050611165565b8381111561118f576000848401525b50505050565b600060028204905060018216806111ad57607f821691505b602082108114156111c1576111c061123f565b5b50919050565b60006111d282611149565b91507fffffffffffffffffffffffffffffffffffffffffffffffffffffffffffffffff82141561120557611204611210565b5b600182019050919050565b7f4e487b7100000000000000000000000000000000000000000000000000000000600052601160045260246000fd5b7f4e487b7100000000000000000000000000000000000000000000000000000000600052602260045260246000fd5b7f4e487b7100000000000000000000000000000000000000000000000000000000600052604160045260246000fd5b6000601f19601f8301169050919050565b6112b781611149565b81146112c257600080fd5b5056fea2646970667358221220fa05ec49c3edf1b0a8e53e8bb794e8b6a0a5a906afb113c40d03deb56766715764736f6c63430008000033",
  "immutableReferences": {},
  "source": "pragma solidity ^0.8.0;\n\ncontract MedicalDataSharing {\n    struct PatientData {\n        address hospital;\n        string hospital_id;\n        string base64EncryptedData;\n    }\n\n    mapping(string => PatientData[]) public patientRecords;\n\n    event DataShared(string patientCccd, address indexed hospital);\n\n    function shareData(string memory patientCccd, string memory hospital_id, string memory base64EncryptedData) public {\n        PatientData memory newRecord = PatientData({\n            hospital: msg.sender,\n            hospital_id: hospital_id,\n            base64EncryptedData: base64EncryptedData\n        });\n\n        patientRecords[patientCccd].push(newRecord);\n        emit DataShared(patientCccd, msg.sender);\n    }\n\n    function getData(string memory patientCccd) public view returns (PatientData[] memory) {\n        return patientRecords[patientCccd];\n    }\n\n    function getRecordsByAddress(\n        string memory patientCccd,\n        string memory hospital_id\n    ) public view returns (string[] memory) {\n        PatientData[] memory records = patientRecords[patientCccd];\n\n        uint count = 0;\n        for (uint i = 0; i < records.length; i++) {\n            if (keccak256(abi.encodePacked(records[i].hospital_id)) == keccak256((abi.encodePacked((hospital_id))))) {\n                count++;\n            }\n        }\n\n        string[] memory matchedRecords = new string[](count);\n        uint index = 0;\n        for (uint i = 0; i < records.length; i++) {\n            if (keccak256(abi.encodePacked(records[i].hospital_id)) == keccak256((abi.encodePacked((hospital_id))))) {\n                matchedRecords[index] = records[i].base64EncryptedData;\n                index++;\n            }\n        }\n\n        return matchedRecords;\n    }\n}\n",
  "sourcePath": "/home/coder/Desktop/microservice_blockchain/data_share/contracts/DataSharing.sol",
  "compiler": {
    "name": "solc",
    "version": "0.8.0+commit.c7dfd78e.Emscripten.clang"
  },
  "schemaVersion": "3.4.16",
  "updatedAt": "2024-11-26T02:40:06.156Z",
  "networkType": "ethereum",
  "devdoc": {
    "kind": "dev",
    "methods": {},
    "version": 1
  },
  "userdoc": {
    "kind": "user",
    "methods": {},
    "version": 1
  }
}